:03000000020C8966
:0C0C8900787FE4F6D8FD75814A020CD09B
:100E6D00737461727420313862323000676574209A
:100E7D0074656D70006572726F72210068656C6CBF
:090E8D006F20776F726C64210084
:0B0F7800C103010900010A000108008C
:0C0F6B007F2E7E997DF5DDFEDEFCDFFAB6
:010F77002257
:100D1500754140754042753F0F753E00E4FCFDABE3
:100D250041AA40A93FA83E120988E47BE87A03F965
:100D3500F8120A138F418E408D3F8C3EC3E49541D6
:100D4500F541E49540F5407401953FF53FE4953E46
:100D5500F53EE541240CF541E43540F540E4353FE9
:100D6500F53FE4353EF53EAF41AE40AD3FFC78087A
:100D7500120AA58F0985410A5389F043890185091E
:080D85008C850A8AD2A9D28CE8
:010D8D002243
:03000B00020EDE04
:040EDE00C0E0C0D0E0
:100EE20085098C850A8A0508E508D394644005754E
:040EF2000800D2031F
:050EF600D0D0D0E03275
:100B0D0078217C007D007BFF7A0E79897E007F0D38
:100B1D001208D0D2AF7F0A7E00120D15120EFB12F5
:100B2D000F257B007A007921E4FDFF120E12120FC2
:100B3D006B3003FD7BFF7A0E796DE4FDFF120E1213
:100B4D00C2037B007A00792E120D8E920030007751
:100B5D007BFF7A0E7979E4FDFF120E12E52FAE2E92
:100B6D007804CEA2E713CE13D8F8FDAC067530008D
:100B7D00E52F540FF5317B007A007932120BE6AB7D
:100B8D00070B74322FF8762EAE30AF317C007D0A14
:100B9D001209217D101209338E308F31EF2430FF71
:100BAD00AE030B74322EF8A607EBC39406500BAFB1
:100BBD00030B74322FF8762080EF74322BF8E4F6A5
:100BCD00FB7A00793280077BFF7A0E7982E4FDFF94
:090BDD00120E12120EFB020B3E77
:100F11007580FFC2A2C2A0D2A1D2A2AF80C2A2EFAD
:030F210020E7F6D0
:010F240022AA
:100F4B00AE07120F11C2A0C2A18E80D2A2C2A222E2
:100F5B00AE07120F11D2A0C2A18E80D2A2C2A222C2
:100F3900ED7004AC078004EF2440FCEC4480FF0210
:020F49000F4B4C
:100E12008B418A428943AC077F01120F4BAF041208
:100E22000F39AB41AA42A9431208F660130543E504
:100E3200437002054214F91208F6FF120F5B80E2BA
:010E4200228D
:100F25007F38120F4B7F0C120F4B7F06120F4B7F32
:040F350001020F4B5B
:100EBA007374617274206765742061636B2E2E2EC1
:100ECA000061636B3D31206661696C00676574205F
:040EDA0061636B00E5
:0B0F84000000000000000000DFF6226B
:100DD400D2027BFF7A0E79BAE4FDFF120E127F3045
:100DE400120F84C2AFC2A37F32120F84D2A37F0535
:100DF400120F84A2A3920230A3FDD2AF30020C7B67
:0D0E0400FF7A0E79CBE4FDFF120E12A20260
:010E110022BE
:100E9600C2AF7E01EE6013C2A300005F7004C2A35E
:100EA6008002D2A3EE25E0FE80EA7F06120F84D2EE
:030EB600A3D2AF15
:010EB9002216
:100E4300C2AF7D01ED601EC2A30000D2A30000204B
:100E5300A305F452068003ED42067F06120F84EDCC
:090E630025E0FD80DFD2AFAF06EF
:010E6C002263
:100EFB00120DD4920120010A7FCC120E967F441260
:050F0B000E96A201B3E7
:010F100022BE
:060D8E008B3E8A3F894004
:100D9400120DD492017BFF7A0E79D6E4FDFF120E78
:100DA400122001287FCC120E967FBE120E96120ED0
:100DB40043AC07120E43EFFEAD047C00E42DFFECC0
:0F0DC4003EAB3EAA3FA9408FF0120969A201B3CE
:010DD30022FD
:0A0BE6008B3E8A3F89408C418D420E
:100BF000E4F543F544C3E54164809480501CC3E4AC
:100C00009542F542E49541F5410540E54070020505
:100C10003F14F9742D12090F0544AE41AF427C0018
:100C20007D0A120933AF05AE43054374452EF8A67D
:100C300007AE41AF427C007D0A1209338E418F42DC
:100C4000D3E5429400E5416480948050CDE543258E
:100C500044F544AF431543D3EF64809480401D7442
:100C6000452543F8E62430FFAB3E0540E540AA3F6A
:100C70007002053F14F9EF12090F80D7AB3EAA3F6F
:080C8000A940E412090FAF4482
:010C88002249
:100C9500020B0DE493A3F8E493A34003F68001F25D
:100CA50008DFF48029E493A3F85407240CC8C33360
:100CB500C4540F4420C8834004F456800146F6DF2F
:100CC500E4800B0102040810204080900F78E47E38
:100CD500019360BCA3FF543F30E509541FFEE49324
:100CE500A360010ECF54C025E060A840B8E493A3EB
:100CF500FAE493A3F8E493A3C8C582C8CAC583CA16
:100D0500F0A3C8C582C8CAC583CADFE9DEE780BECD
:010F8300006D
:10080000E709F608DFFA8046E709F208DFFA803EDA
:1008100088828C83E709F0A3DFFA8032E309F608C7
:10082000DFFA8078E309F208DFFA807088828C832F
:10083000E309F0A3DFFA806489828A83E0A3F608E3
:10084000DFFA805889828A83E0A3F208DFFA804CBD
:1008500080D280FA80C680D4806980F28033801094
:1008600080A680EA809A80A880DA80E280CA8033FD
:1008700089828A83ECFAE493A3C8C582C8CCC58375
:10088000CCF0A3C8C582C8CCC583CCDFE9DEE78045
:100890000D89828A83E493A3F608DFF9ECFAA9F0C4
:1008A000EDFB2289828A83ECFAE0A3C8C582C8CC1A
:1008B000C583CCF0A3C8C582C8CCC583CCDFEADE33
:1008C000E880DB89828A83E493A3F208DFF980CC95
:1008D00088F0EF60010E4E60C388F0ED2402B4048E
:1008E0000050B9F582EB2402B4040050AF23234535
:0608F00082239008507302
:1008F600BB010689828A83E0225002E722BBFE0200
:09090600E32289828A83E4932232
:10090F00BB010689828A83F0225002F722BBFE01C7
:02091F00F322C1
:10092100EF8DF0A4A8F0CF8CF0A428CE8DF0A42EEA
:02093100FE22A4
:10093300C2D5EC30E709B2D5E4C39DFDE49CFCEEDF
:1009430030E715B2D5E4C39FFFE49EFE120AB8C395
:10095300E49DFDE49CFC8003120AB830D507C3E490
:060963009FFFE49EFE224E
:10096900BB010A89828A83F0E5F0A3F0225006F7D9
:0F09790009A7F01922BBFE06F3E5F009F31922D6
:10098800E88FF0A4CC8BF0A42CFCE98EF0A42CFC0E
:100998008AF0EDA42CFCEA8EF0A4CDA8F08BF0A48C
:1009A8002DCC3825F0FDE98FF0A42CCD35F0FCEBEB
:1009B8008EF0A4FEA9F0EB8FF0A4CFC5F02ECD39B0
:0F09C800FEE43CFCEAA42DCE35F0FDE43CFC221D
:1009D70075F008758200EF2FFFEE33FECD33CDCCD7
:1009E70033CCC58233C5829BED9AEC99E58298405A
:1009F7000CF582EE9BFEED9AFDEC99FC0FD5F0D637
:100A0700E4CEFBE4CDFAE4CCF9A88222B800C1B960
:100A17000059BA002DEC8BF084CFCECDFCE5F0CB9E
:100A2700F97818EF2FFFEE33FEED33FDEC33FCEBD7
:100A370033FB10D703994004EB99FB0FD8E5E4F992
:100A4700FA227818EF2FFFEE33FEED33FDEC33FC7F
:100A5700C933C910D7059BE99A4007EC9BFCE99A73
:100A6700F90FD8E0E4C9FAE4CCFB2275F010EF2FB8
:100A7700FFEE33FEED33FDCC33CCC833C810D707B8
:100A87009BEC9AE899400AED9BFDEC9AFCE899F8F3
:0E0A97000FD5F0DAE4CDFBE4CCFAE4C8F92286
:100AA500E8600FECC313FCED13FDEE13FEEF13FF2F
:030AB500D8F12253
:100AB800BC000BBE0029EF8DF084FFADF022E4CC22
:100AC800F875F008EF2FFFEE33FEEC33FCEE9DECEB
:100AD800984005FCEE9DFE0FD5F0E9E4CEFD22ED31
:100AE800F8F5F0EE8420D21CFEADF075F008EF2F7B
:100AF800FFED33FD4007985006D5F0F222C398FD6C
:050B08000FD5F0EA2208
:00000001FF
